:100000000C94790F0C94AA0F0C94AA0F0C94AA0FBD
:100010000C94AA0F0C94AA0F0C94AA0F0C94AA0F7C
:100020000C94AA0F0C94AA0F0C94AA0F0C94AA0F6C
:100030000C94AA0F0C94AA0F0C94AA0F0C94AA0F5C
:100040000C94AA0F0C94F5790C94AA0F0C94AA0F97
:100050000C94AA0F0C94AA0F0C94446E0C94586C38
:100060000C94AA0F0C94357A0C94AA0F0C94AA0F36
:100070000C94AA0F0C94AA0F0C94AA0F0C94AA0F1C
:100080000C94AA0F0C94AA0F0C94AA0F0C94AA0F0C
:100090000C94AA0F0C94AA0F0C94AA0F0C94AA0FFC
:1000A0000C94AA0F0C94AA0F0C94AA0F0C94AA0FEC
:1000B0000C94AA0F0C94AA0F0C94AA0F0C94AA0FDC
:1000C0000C94AA0F0C94AA0F0C94AA0F0C94AA0FCC
:1000D0000C94AA0F0C94AA0F0C94AA0F0C94AA0FBC
:1000E0000C94AA0F084AD73B3BCE016E84BCBFFDDF
:1000F000C12F3D6C74319ABD56833DDA3D00C77FF8
:1001000011BED9E4BB4C3E916BAAAABE0000008090
:100110003F05A84CCDB2D44EB93836A9020C50B91F
:10012000918688083CA6AAAA2ABE000000803F004B
:100130004E414E494E495459494E46CDCCCC3D0ACC
:10014000D7233C17B7D13877CC2B329595E6241FAF
:10015000B14F0A000020410000C84200401C462068
:10016000BCBE4CCA1B0E5AAEC59D74434F4D4D5577
:100170004E49434154494F4E0044525952554E0046
:100180004552524F525300494E464F004543484F47
:1001900000656E7175657565696E67202200507225
:1001A000696E7465722073746F7070656420647515
:1001B0006520746F206572726F72732E20466978A5
:1001C00020746865206572726F7220616E6420759C
:1001D0007365204D39393920746F207265737461ED
:1001E00072742E202854656D706572617475726525
:1001F0002069732072657365742E205365742069BD
:1002000074206166746572207265737461727469BA
:100210006E67290A004E6F20436865636B73756DC6
:100220002077697468206C696E65206E756D6265F3
:10023000722C204C617374204C696E653A20006307
:100240006865636B73756D206D69736D6174636848
:100250002C204C617374204C696E653A20004C6907
:100260006E65204E756D626572206973206E6F74C5
:10027000204C617374204C696E65204E756D62650B
:10028000722B312C204C617374204C696E653A20BE
:10029000004D3131300020496E76616C6964206513
:1002A000787472756465722000000000000000A080
:1002B000C00000000000009643000096430000C804
:1002C00043206E6F7420656E74657265642E0A003B
:1002D0002C20002C200050726F74656374656420BC
:1002E00050696E0A0020573A0020573A00205A3AC7
:1002F0000020593A0020436F756E7420583A002050
:10030000453A00205A3A0020593A00583A003A003B
:100310004361703A004F66660A0046616465204892
:1003200065696768742000426564204C6576656C79
:10033000696E6720004661696C656420746F206592
:100340006E61626C6520426564204C6576656C69FF
:100350006E670A004D65736820426564204C6576BF
:10036000656C20646174613A0A004D6573682070A1
:100370006F696E742063616E6E6F742062652072A7
:1003800065736F6C7665640A004D34323120696E96
:10039000636F727265637420706172616D657465FC
:1003A000722075736167650A00526573656E643A01
:1003B000200020746F6F206C6F6E672065787472F8
:1003C0007573696F6E2070726576656E7465640A08
:1003D0000020636F6C6420657874727573696F6E4A
:1003E0002070726576656E7465640A006275737953
:1003F0003A2070617573656420666F7220696E7053
:1004000075740A00627573793A207061757365645A
:1004100020666F7220757365720A00627573793A8F
:100420002070726F63657373696E670A004B494C85
:100430004C2063617573656420627920746F6F204E
:100440006D75636820696E6163746976652074698F
:100450006D65202D2063757272656E7420636F6DFB
:100460006D616E643A20002020506C616E6E657282
:1004700042756666657242797465733A200020465B
:10048000726565204D656D6F72793A2000436F6D1E
:1004900070696C65643A204A756E203131203230C3
:1004A00032300A00207C20417574686F723A20282F
:1004B0004561726C204D696C6C6572203344204E2E
:1004C00065787573202D20466F6F64466967687480
:1004D0006572290A00323031382D30382D30310024
:1004E000204C61737420557064617465643A200017
:1004F000312E312E390A004D61726C696E00205325
:100500006F6674776172652052657365740A0020A6
:100510005761746368646F672052657365740A007D
:100520002042726F776E206F757420526573657408
:100530000A002045787465726E616C20526573659F
:10054000740A00506F77657255700A007374617297
:10055000740A005761726E696E673A20486F6D6960
:100560006E672042756D702044697669736F7220E2
:100570003C20310A000202040000A0400000A0401C
:100580000000004000009643008098430000C843EC
:100590006F6B004572726F722077726974696E6753
:1005A00020746F20454550524F4D210A004545505B
:1005B000524F4D206461746173697A65206572726F
:1005C0006F722E0A00290A002062797465733B203D
:1005D000637263200053657474696E67732053748B
:1005E0006F726564202800290A002062797465739F
:1005F0003B2063726320002073746F726564207304
:10060000657474696E677320726574726965766566
:1006100064202800202863616C63756C61746564D4
:1006200029210A0020213D2000454550524F4D20F0
:10063000435243206D69736D61746368202D2028D7
:1006400073746F7265642920002053697A653A20BB
:1006500000496E6465783A2000204D61726C696EC5
:100660003D563535290A0028454550524F4D3D002D
:10067000454550524F4D2076657273696F6E206DFF
:1006800069736D61746368200048617264636F64AC
:1006900065642044656661756C7420536574746983
:1006A0006E6773204C6F616465640A00D0070000B8
:1006B000D0070000640000001027000000009643EF
:1006C000000096430000484200002042F43DA04252
:1006D000F43DA04296E3C7430080DE4320286D6DC1
:1006E000290020204D393030204B004C696E656167
:1006F0007220416476616E63653A0A0020440020EE
:10070000490020204D33303420500020440020493F
:100710000020204D33303120500050494420736573
:100720007474696E67733A0A00205A0020590020D9
:1007300020473239205333205800205A0020204DC2
:100740003432302053004D65736820426564204C7C
:100750006576656C696E673A0A00205A0020590078
:1007600020204D323036205800486F6D65206F666E
:10077000667365743A0A00204500205A002059002B
:1007800020580020540020530020204D32303520C6
:10079000510020453C6D61785F655F6A65726B3E14
:1007A0000020583C6D61785F785F6A65726B3E200F
:1007B000593C6D61785F795F6A65726B3E205A3C87
:1007C0006D61785F7A5F6A65726B3E004164766145
:1007D0006E6365643A20513C6D696E5F7365676D49
:1007E000656E745F74696D655F75733E20533C6D13
:1007F000696E5F66656564726174653E20543C6D28
:10080000696E5F74726176656C5F6665656472615E
:1008100074653E0020540020520020204D323034B8
:10082000205000416363656C65726174696F6E206E
:1008300028756E6974732F7332293A20503C707298
:10084000696E745F616363656C3E20523C726574CF
:10085000726163745F616363656C3E20543C7472C3
:100860006176656C5F616363656C3E0A00204500DC
:10087000205A0020590020204D3230312058004DA0
:100880006178696D756D20416363656C6572617433
:10089000696F6E2028756E6974732F7332293A0A56
:1008A00000204500205A0020590020204D323033CE
:1008B0002058004D6178696D756D206665656472BC
:1008C000617465732028756E6974732F73293A0AF1
:1008D00000204500205A0020590020204D393220A8
:1008E000580053746570732070657220756E69745A
:1008F0003A0A0020204D3230302044300A002020B7
:100900004D3230302044002044697361626C65646C
:100910000A0046696C616D656E7420736574746954
:100920006E67733A002020473231202020203B00A0
:10093000545249474745524544006F70656E003A2E
:1009400020007A5F6D696E00795F6D696E00785F77
:100950006D696E005265706F7274696E6720656EA6
:100960006473746F70207374617475730A000A4D38
:100970006561737572656420706F696E74733A0A8D
:10098000005A206F66667365743A20004E756D20BC
:10099000582C593A20332C330A0000000001000083
:1009A0000001000080005555550000004000333321
:1009B0003300AAAA2A004992240000002000C7712F
:1009C0001C0099991900D1451700555515003BB1E8
:1009D00013002449120011111100000010000F0F24
:1009E0000F00E3380E0043790D00CCCC0C00C3306F
:1009F0000C00E8A20B0064210B00AAAA0A00703DBB
:100A00000A009DD80900427B090092240900DCD32A
:100A10000800888808001042080000000800F0C1A3
:100A200007008787070075500700711C07003EEB21
:100A30000600A1BC06006990060066660600703ECE
:100A400006006118060017F4050074D105005BB0BC
:100A50000500B29005006272050055550500783911
:100A60000500B81E0500050505004EEC040087D4FE
:100A70000400A1BD040090A7040049920400C17DB8
:100A80000400EE690400C7560400444404005C32CC
:100A900004000821040041100400000004003FF09D
:100AA0000300F8E0030026D20300C3C30300CCB563
:100AB00003003AA803000A9B0300388E0300C0819C
:100AC00003009F750300D0690300505E03001D53AF
:100AD000030034480300913D03003333030016291B
:100AE0000300381F030097150300300C03000303B5
:100AF00003000BFA020049F10200BAE802005CE0D0
:100B000002002DD802002DD0020059C80200B0C04A
:100B1000020031B90200DAB10200AAAA0200A0A3C1
:100B20000200BC9C0200FA9502005C8F0200DF8884
:100B3000020082820200457C0200277602002770B4
:100B40000200436A02007C640200D05E02003F594A
:100B50000200C853020020746F6F206C6F6E672014
:100B6000657874727573696F6E2070726576656EE4
:100B70007465640A0020636F6C6420657874727514
:100B800073696F6E2070726576656E7465640A00B5
:100B9000FFFDFCFAF8F6F4F2F0EEECEAE9E7E5E343
:100BA000E1E0DEDCDAD9D7D5D4D2D0CFCDCBCAC8FC
:100BB000C7C5C3C2C0BFBDBCBAB9B7B6B4B3B2B083
:100BC000AFADACAAA9A8A6A5A4A2A1A09E9D9C9ADF
:100BD00099989795949392908F8E8D8B8A89888718
:100BE0008684838281807F7E7D7B7A797877767533
:100BF00074737271706F6E6D6C6B6A69686766652D
:100C000064636261605F5E5D5C5B5A595858575619
:100C1000555453525150504F4E4D4C4B4A4A4948EF
:100C2000474646454443424241403F3E3E3D3C3BB1
:100C30003B3A393838373635353433323231303063
:100C40002F2E2E2D2C2B2B2A292928272726252508
:100C500024232322212120201F1E1E1D1C1C1B1BA0
:100C60001A1919181817161615151413131212112C
:100C700011100F0F0E0E0D0D0C0C0B0A0A090908AE
:100C80000807070606050504040303020201000025
:100C900024F4D43050C38E20C2A24017828B70112E
:100CA000127A910D816CD90AA861E108C7586607CC
:100CB000615143061E4B5D05C145A7041A4111044D
:100CC000093D9803713931034036DB0265339102E7
:100CD000D4305402802E1D02632CEE01752AC5010A
:100CE000B028A001102781018F2564012B244B011E
:100CF000E0223401AC211F018D200D01801FFC007A
:100D0000841EED00971DDF00B81CD200E61BC60054
:100D1000201BBC00641AB200B219A8000A19A00076
:100D20006A189900D117910040178B00B5168400FE
:100D300031167E00B31579003A157300C7146F00A1
:100D400058146A00EE1366008813630025135E00D2
:100D5000C7125B006C12570015125400C1115100EC
:100D600070114F0021114B00D61049008D10470023
:100D70004610440002104200C00F4000800F3E00A9
:100D8000420F3C00060F3B00CB0E3800930E37009D
:100D90005C0E3500270E3400F30D3200C10D31001A
:100DA000900D3000600D2E00320D2D00050D2C0031
:100DB000D90C2B00AE0C2900850C29005C0C2700F7
:100DC000350C27000E0C2600E80B2400C40B240071
:100DD000A00B23007D0B23005A0B2100390B2100AF
:100DE000180B2000F80A1F00D90A1E00BB0A1E00BB
:100DF0009D0A1D00800A1D00630A1C00470A1B0093
:100E00002C0A1B00110A1A00F7091A00DD09190043
:100E1000C4091900AB091900920917007B091800D1
:100E2000630917004C091600360916002009160040
:100E30000A091500F5081500E0081400CC08140094
:100E4000B8081400A4081400900813007D081200CC
:100E50006B081300580812004608120034081100ED
:100E6000230811001208110001081100F0071000FA
:100E7000E0071000D0071000C0071000B0070F00F7
:100E8000A107100091070E0083070F0074070F00E1
:100E900065070E0057070E0049070E003B070D00BF
:100EA0002E070E0020070D0013070D0006070D008A
:100EB000F9060C00ED060D00E0060C00D4060C004F
:100EC000C8060C00BC060C00B0060C00A4060B0003
:100ED00099060C008D060B0082060B0077060B00AE
:100EE0006C060B0061060A0057060B004C060A0050
:100EF00042060A0038060A002E060A0024060A00E6
:100F00001A060A001006090007060A00FD05090076
:100F1000F4050900EB050900E2050900D9050900FF
:100F2000D0050900C7050900BE050900B505080080
:100F3000AD050800A50509009C05080094050800FA
:100F40008C050800840508007C050800740508006D
:100F50006C050700650508005D05070056050800DB
:100F60004E05070047050700400508003805070043
:100F7000310507002A050700230507001C050600A8
:100F8000160507000F050700080506000205070003
:100F9000FB040600F5040700EE040600E804060062
:100FA000E2040700DB040600D5040600CF040600B7
:100FB000C9040600C3040600BD040600B704060009
:100FC000B1040500AC040600A6040600A004050058
:100FD0009B04060095040500900406008A040500A1
:100FE00085040500800406007A04050075040500E8
:100FF000700405006B04050066040500610405002B
:101000005C04050057040500520405004D0405006A
:1010100048040500430405003E0404003A040500AA
:1010200035040500300404002C04050027040400E6
:10103000230405001E0404001A040400160405001D
:10104000110404000D040400090405000404040054
:1010500000040400FC030400F8030400F40304008B
:10106000F0030400EC030400E8030400E4030400BC
:10107000E0030400DC030400D8030400D4030400EC
:10108000D0030400CC030400C8030300C50303001D
:1010900024F404D9201BC40C5C0E9804C4095F021C
:1010A00065077101F405F900FB04B30048048700EB
:1010B000C10369005803550003034500BE023A000E
:1010C0008402310053022A00290225000402200074
:1010D000E4011C00C8011900AF01170098011400B9
:1010E00084011300710110006101100051010E0014
:1010F00043010D0036010B002B010B0020010B00FA
:10110000150109000C01090003010800FB0008009B
:10111000F3000800EB000700E4000600DE00060014
:10112000D8000600D2000600CC000500C70005006C
:10113000C2000500BD000400B9000400B5000400B1
:10114000B1000400AD000400A9000400A5000300E4
:10115000A20003009F0004009B000300980003000E
:101160009500020093000300900003008D00020030
:101170008B00030088000200860002008400030048
:10118000810002007F0002007D0002007B0002005F
:10119000790002007700010076000200740002006E
:1011A00072000100710002006F0002006D0001007A
:1011B0006C0002006A000100690002006700010083
:1011C0006600010065000100640002006200010089
:1011D00061000100600001005F0002005D0001008D
:1011E0005C0001005B0001005A0001005900010091
:1011F0005800010057000100560001005500010091
:10120000540001005300000053000100520001008F
:1012100051000100500001004F0001004E0000008D
:101220004E0001004D0001004C0001004B00000089
:101230004B0001004A000100490001004800000085
:101240004800010047000100460000004600010080
:10125000450000004500010044000100430000007B
:101260004300010042000000420001004100000074
:1012700041000100400001003F0000003F0001006C
:101280003E0000003E0001003D0000003D00010066
:101290003C0000003C0000003C0001003B0000005E
:1012A0003B0001003A0000003A0001003900000054
:1012B000390001003800000038000000380001004B
:1012C0003700000037000100360000003600000043
:1012D0003600010035000000350000003500010037
:1012E000340000003400000034000100330000002E
:1012F0003300000033000100320000003200000023
:101300003200010031000000310000003100010016
:101310003000000030000000300001002F0000000D
:101320002F0000002F0000002F0001002E00000001
:101330002E0000002E0001002D0000002D000000F6
:101340002D0000002D0001002C0000002C000000EA
:101350002C0000002C0001002B0000002B000000DE
:101360002B0000002B0001002A0000002A000000D2
:101370002A0000002A0001002900000029000000C6
:1013800029000000290000002900010028000000B9
:1013900028000000280000002800000028000100AC
:1013A00027000000270000002700000027000000A1
:1013B0002700010026000000260000002600000093
:1013C0002600000026000100250000002500000086
:1013D0002500000025000000250000002500010078
:1013E000240000002400000024000000240000006D
:1013F000240001002300000023000000230000005F
:10140000230000002300000023000000230001004F
:101410002200000022000000220000002200000044
:101420002200000022000100210000002100000035
:101430002100000021000000210000002100000028
:10144000210001002000000020000000200000001A
:10145000200000002000000020000000200000000C
:10146000200001001F0000001F0000001F000000FE
:101470001F0000001F0000001F0000001F000100EF
:101480001E0000001E0000001E0000001E000000E4
:10149000232C0000B8220000561800003A0F00006C
:1014A000B8080000B1040000710200003E01000015
:1014B0004B64200023646566696E6520444546419F
:1014C000554C545F004B69200023646566696E6566
:1014D0002044454641554C545F004B702000236426
:1014E0006566696E652044454641554C545F005021
:1014F0004944204175746F74756E652066696E6924
:1015000073686564212050757420746865206C616F
:101510007374204B702C204B6920616E64204B64E7
:1015200020636F6E7374616E74732066726F6D20CA
:1015300062656C6F7720696E746F20436F6E6669A9
:101540006775726174696F6E2E680A005049442095
:101550004175746F74756E65206661696C65642190
:101560002074696D656F75740A00453120544845D3
:10157000524D414C2052554E41574159004245442D
:1015800020544845524D414C2052554E41574159E7
:1015900000546865726D616C2052756E6177617977
:1015A0000045312048656174696E67206661696C29
:1015B0006564004265642068656174696E672066D1
:1015C00061696C65640048656174696E6720666175
:1015D000696C656400504944204175746F74756E80
:1015E00065206661696C6564212054656D70657263
:1015F000617475726520746F6F20686967680A008E
:10160000204B643A2000204B693A2000204B703A6E
:1016100020000A20436C61737369632050494420A1
:101620000A002054753A2000204B753A2000206DA6
:1016300061783A2000206D696E3A200020643A20DB
:101640000020626961733A2000504944204175745A
:101650006F74756E652073746172740A005049442A
:10166000204175746F74756E65206661696C656480
:101670002120426164206578747275646572206E01
:10168000756D6265720A0007FFFFFFFFFF00010131
:101690000101016265640A002C2073797374656D21
:1016A0002073746F70706564212048656174657281
:1016B0005F49443A20004265642068656174696E40
:1016C00067206661696C65640048656174696E676E
:1016D000206661696C656400453120486561746904
:1016E0006E67206661696C65640048656174696E47
:1016F00067206661696C65640070012C01900127A8
:1017000001B0012201C0011D01F0011801100213F6
:101710000130020E016002090190020401C002FFC3
:10172000000003FA004003F5008003F000D003EB53
:10173000002004E6007004E100E004DC004005D76E
:1017400000C005D2004006CD00D006C8008007C307
:10175000003008BE00F008B900C009B400B00AAFFC
:1017600000B00BAA00D00CA500000EA000500F9BEB
:1017700000C01096005012910000148C00C0158714
:1017800000B0178200B0197D00D01B7800001E73D6
:101790000040206E0090226900F024640040275F22
:1017A0000090295A00E02B5500102E500020304B9D
:1017B0000010324600E033410090353C00103737CE
:1017C0000070383200A0392D00B03A2800A03B2329
:1017D00000603C1E00103D1900903D1400103E0FAB
:1017E00000703E0A00C03E0500003F0000403FFB85
:1017F000FF803FF6FFC03FF1FF453120544845527E
:101800004D414C2052554E415741590042454420CC
:10181000544845524D414C2052554E415741590074
:10182000546865726D616C2052756E6177617900E4
:101830004531204572723A204D415854454D500073
:101840004572723A204D415854454D50204245440E
:10185000004D415854454D50207472696767657258
:101860006564004531204572723A204D494E544519
:101870004D50004572723A204D494E54454D50200E
:10188000424544004D494E54454D5020747269679D
:10189000676572656400202F002042403A002040B6
:1018A0003A0000002100240027002A002D0030000B
:1018B000330001010000040107010A0100002200B9
:1018C000250028002B002E0031003400020100000A
:1018D000050108010B01000020002300260029005B
:1018E0002C002F0032000001000003010601090155
:1018F00005050505070508080808020202020A0A8C
:1019000008080404040401010101010101010303A9
:10191000030303030303040707070C0C0C0C0C0C54
:101920000C0C0202020206060606060606060B0B51
:101930000B0B0B0B0B0B0102102020080810204092
:101940001020408002010201080402010102040883
:101950001020408080402010080402018004020111
:10196000804020100804020108040201010204085A
:1019700010204080010204081020408000000A0B63
:1019800002090C0D0E08070304010000000000000E
:101990000000000000000000000000000000000047
:1019A0000000000000000000121110000000000004
:1019B0000000000000000000000000000000000027
:1019C000000047322F4733206261642070617261EA
:1019D0006D65746572730A00206F6620004D424C7D
:1019E0002047323920706F696E74200059206F755E
:1019F00074206F662072616E67652028312D33294F
:101A00002E0A0058206F7574206F662072616E6711
:101A1000652028312D33292E0A004D65736820700A
:101A2000726F62696E6720646F6E652E0A00537470
:101A3000617274206D6573682070726F62696E6781
:101A4000207769746820224732392053312220667A
:101A5000697273742E0A004732380A4732392053AC
:101A600032004D65736820626564206C6576656C34
:101A7000696E6720686173206E6F20646174612EE7
:101A80000A0053746174653A200053206F75742006
:101A90006F662072616E67652028302D35292E0A09
:101AA000004D65736820706F696E742063616E6E9F
:101AB0006F74206265207265736F6C7665640A00CE
:101AC0002569730025696D202569730025696820E3
:101AD00025696D20256973002569642025696820C2
:101AE00025696D20256973002569792025696420A1
:101AF0002569682025696D20256973005072696E1B
:101B0000742074696D653A20006F6666008C0187E9
:101B100001800179016B0144454255473A004D313E
:101B200031332053006F6B00544845524D414C5F98
:101B300050524F54454354494F4E004155544F5213
:101B400045504F52545F53445F53544154555300D2
:101B5000454D455247454E43595F504152534552BA
:101B600000434153455F4C494748545F42524947FF
:101B700048544E45535300544F47474C455F4C49DA
:101B80004748545300534F4654574152455F504FB6
:101B9000574552004255494C445F50455243454ECB
:101BA00054004C4556454C494E475F444154410012
:101BB0005A5F50524F4245004155544F4C4556458F
:101BC0004C005052494E545F4A4F420050524F47CA
:101BD00052455353004155544F5245504F52545F54
:101BE00054454D5000564F4C554D455452494300B5
:101BF000454550524F4D0053455249414C5F584F57
:101C00004E5F584F4646004649524D574152455F38
:101C10004E414D453A4D61726C696E20312E312E28
:101C20003920284769746875622920534F555243FB
:101C3000455F434F44455F55524C3A687474707326
:101C40003A2F2F6769746875622E636F6D2F4D612F
:101C5000726C696E4669726D776172652F4D617243
:101C60006C696E2050524F544F434F4C5F56455253
:101C700053494F4E3A312E30204D414348494E454D
:101C80005F545950453A3344205072696E746572FE
:101C90002045585452554445525F434F554E543A8F
:101CA0003120555549443A63656465326132662D89
:101CB000343161322D343734382D396231322D636D
:101CC00035356336326633363766660A002F2F2085
:101CD00000205400205200416363656C657261749A
:101CE000696F6E3A2050005741524E494E472120AD
:101CF0004C6F77205A204A65726B206D6179206C99
:101D000065616420746F20756E77616E7465642000
:101D10007061757365732E0A00000000000000A05A
:101D2000C000000000546F6F206661722066726F01
:101D30006D207265666572656E636520706F696E91
:101D4000740A00FFFFFF205A00205900580020208D
:101D50004D61783A2000205A002059005800202078
:101D60004D696E3A20004F6E20004F666600536F3B
:101D7000667420656E6473746F70733A2000204639
:101D80006C6F773A2000000136372603FFFFFF3BD8
:101D90003C3D380EFFFFFF3F2E303E12FFFFFFFF9E
:101DA00028FF0C080907FFFF1A1C18FFFF2A084428
:101DB0000A074324221E2C496E76616C69642065F3
:101DC000787472756465720A0020643A0020693A7A
:101DD0000020703A0043290A0061626C6564202883
:101DE0006D696E2074656D702000436F6C642065B2
:101DF0007874727564657320617265200020643A9E
:101E00000020693A0020703A004E6F2063617365CC
:101E1000206C696768740A00454550524F4D204F49
:101E20004B0A003F4B2076616C7565206F757420FE
:101E30006F662072616E67652028302D3130292E43
:101E40000A00416476616E6365204B3D0041637416
:101E50006976652045787472756465723A20004928
:101E60006E76616C69642065787472756465720A57
:101E700000205A3A0020593A0020583A00656E6412
:101E800073746F7073206869743A2000556E6B6EBE
:101E90006F776E20636F6D6D616E643A2022002053
:101EA00066697273740A005A0059005800486F6DD1
:101EB0006520006563686F3A0000007042000070A2
:101EC0004200002041000000005072696E7465728B
:101ED0002068616C7465642E206B696C6C28292005
:101EE00063616C6C6564210A004572726F723A001E
:101EF0005F7A11241FBECFEFD1E2DEBFCDBF00E07D
:101F00000CBF13E0A0E0B2E0E4EAF5E301E00BBFB0
:101F100002C007900D92A030B107D9F72EE0A0E0E3
:101F2000B3E001C01D92A53FB207E1F71FE0C9E78A
:101F3000DFE000E006C021970109802FFE010E942A
:101F40007B9AC837D10780E00807A9F70E94B47AC6
:101F50000C94D09A0C940000FC01DB018C91208140
:101F60003181382798E0A901220F331F57FD05C0A2
:101F70009150C9F7318320830895B1E22B27B0E156
:101F80003B27F6CF8150823108F05AC0E82FF0E0AD
:101F90008827E253F04F8F4F0C947B9AEE0FF20F8D
:101FA000E00FE60FEA0F2010F50FFB0FFF0F0510F3
:101FB00009100D101310171020101B1021102510E0
:101FC000809180008F7780938000089580918000B9
:101FD0008F7DF9CF80918000877FF5CF84B58F7793
:101FE00084BD089584B58F7DFBCF8091B0008F773D
:101FF0008093B00008958091B0008F7DF9CF8091DB
:1020000090008F77809390000895809190008F7D4D
:10201000F9CF80919000877FF5CF8091A0008F77D6
:102020008093A00008958091A0008F7DF9CF8091CA
:10203000A000877FF5CF809120018F7780932001CA
:102040000895809120018F7DF9CF80912001877FB5
:10205000F5CFCF93DF93282F30E0F901E458F64E07
:102060008491F901EA5CF64ED491F901E051F74E02
:10207000C491CC2399F0811185DFEC2FF0E0EE0FB5
:10208000FF1FEA52F74EA591B491EC91ED2381E048
:1020900090E009F480E0DF91CF91089580E090E036
:1020A000FACF1F93CF93DF93282F30E0F901E45844
:1020B000F64E8491F901EA5CF64ED491F901E051B3
:1020C000F74EC491CC23A1F0162F81115BDFEC2FCA
:1020D000F0E0EE0FFF1FE454F74EA591B4918FB7D7
:1020E000F894EC91111108C0D095DE23DC938FBFDA
:1020F000DF91CF911F910895DE2BF8CFCF93DF931F
:1021000090E0FC01EA5CF64E24918051974EFC0170
:1021100084918823D1F090E0880F991FFC01EE553F
:10212000F74EA591B491FC01E454F74EC591D491BA
:1021300061110EC09FB7F8948C91E22FE0958E2329
:102140008C932881E223E8839FBFDF91CF9108958C
:102150008FB7F894EC91E22BEC938FBFF6CF1F93DF
:10216000CF93DF93182FEB0161E0C8DF209731F4A4
:1021700060E0812FDF91CF911F9193CFCF3FD105A9
:1021800011F461E0F6CFE12FF0E0E458F64EE4916F
:10219000E150E23108F0B3C0F0E08827ED52FF4E85
:1021A0008F4F0C947B9AE510ED10F210FC10061185
:1021B0007F111011181120112A1134113E114D11E7
:1021C00057117F1161116B11751184B5806884BD41
:1021D000C7BDDF91CF911F91089584B5806284BD02
:1021E000C8BDF7CF80918000806880938000D09335
:1021F0008900C0938800EDCF809180008062809339
:102200008000D0938B00C0938A00E3CF8091800040
:10221000886080938000D0938D00C0938C00D9CFCC
:102220008091B00080688093B000C093B300D1CF9C
:102230008091B00080628093B000C093B400C9CF99
:1022400080919000806880939000D0939900C09313
:102250009800BFCF80919000806280939000D093CF
:102260009B00C0939A00B5CF8091900088608093C6
:102270009000D0939D00C0939C00ABCF8091A000B4
:1022800080688093A0008091A0008F7B8093A00045
:10229000D093A900C093A8009CCF8091A000806239
:1022A0008093A000D093AB00C093AA0092CF8091FE
:1022B000A00088608093A000D093AD00C093AC00D4
:1022C00088CF80912001806880932001D0932901DC
:1022D000C09328017ECF80912001806280932001ED
:1022E000D0932B01C0932A0174CF80912001886084
:1022F00080932001D0932D01C0932C016ACFC03868
:10230000D1050CF03ECF34CF3FB7F89480918D0BC0
:1023100090918E0BA0918F0BB091900B26B5A89B3E
:1023200005C02F3F19F00196A11DB11D3FBFBA2F67
:10233000A92F982F8827BC01CD01620F711D811D27
:10234000911D42E0660F771F881F991F4A95D1F7AC
:1023500008958F929F92AF92BF92CF92DF92EF92A9
:10236000FF926B017C01D0DF4B015C01C114D104F1
:10237000E104F104B1F0C8DF681979098A099B0901
:10238000683E73408105910588F321E0C21AD108A7
:10239000E108F10888EE880E83E0981EA11CB11CAC
:1023A000E5CFFF90EF90DF90CF90BF90AF909F90E0
:1023B0008F9008952FB7F8946091890B70918A0BD4
:1023C00080918B0B90918C0B2FBF0895CF92DF9251
:1023D000EF92FF92C0909A0ED0909B0EE0909C0ED0
:1023E000F0909D0E6091980E7091990E6650710953
:1023F000072E000C880B990B0E9460939B01AC0187
:10240000C701B6010E945A9387FF20C020E030E048
:1024100040E050E4C701B6010E9492970E94DB9809
:102420007093970E6093960EC5DF605E714B8F4F71
:102430009F4F6093920E7093930E8093940E90939F
:10244000950EFF90EF90DF90CF9008951092920E2E
:102450001092930E1092940E1092950EF2CF8F92CE
:102460009F92AF92BF92CF92DF92EF92FF920F9323
:102470001F93CF93DF93B0E4A0E06A2F70E0AB012D
:102480004B0F511D559547954A1711F0B41319C0BC
:10249000E7EFF7E165917491072E000C880B990B1B
:1024A0000E946093DF91CF911F910F91FF90EF9069
:1024B000DF90CF90BF90AF909F908F900895B42FF2
:1024C000DECF9A0121503109220F331F220F331F13
:1024D000F901E750F94EE590F490F901E350F94E17
:1024E000C591D4918E159F0554F3A42FC817D90711
:1024F0000CF4C3CFF901E550F94E05911491F9019F
:10250000E150F94EC590D490BC016E197F09072E99
:10251000000C880B990B0E9460934B015C01B60183
:10252000601B710B072E000C880B990B0E946093A7
:102530009B01AC01C501B4010E94BF934B015C013A
:10254000BE016E197F09072E000C880B990B0E94A3
:1025500060939B01AC01C501B4010E946E986B01B0
:102560007C01B801110F880B990B0E9460939B01AD
:10257000AC01C701B6010E94929794CFCF92DF922F
:10258000EF92FF92C090840BD090850BE090860B69
:10259000F090870B6091000C7091010C66507109EE
:1025A000072E000C880B990B0E946093A7019601DF
:1025B0000E94B899181604F520E030E040E050E49D
:1025C000C701B6010E9492970E94DB9870935D0B41
:1025D00060935C0BEFDE605A75418F4F9F4F6093A5
:1025E000580B7093590B80935A0B90935B0BFF9091
:1025F000EF90DF90CF9008951092580B1092590BE6
:1026000010925A0B10925B0BF2CF8F929F92AF9267
:10261000BF92CF92DF92EF92FF920F931F93CF93CF
:10262000DF93B0E4A0E06A2F70E0AB014B0F511DC7
:1026300055954795A41711F0B41319C0E7EFF7E1CA
:1026400065917491072E000C880B990B0E94609382
:10265000DF91CF911F910F91FF90EF90DF90CF907E
:10266000BF90AF909F908F900895B42FDECF9A01C6
:1026700021503109220F331F220F331FF901E75078
:10268000F94EE590F490F901E350F94EC591D491DB
:102690008E159F0554F3A42FC817D9070CF4C3CF88
:1026A000F901E550F94E05911491F901E150F94E07
:1026B000C590D490BC016E197F09072E000C880BC1
:1026C000990B0E9460934B015C01B601601B710B7A
:1026D000072E000C880B990B0E9460939B01AC01A4
:1026E000C501B4010E94BF934B015C01BE016E198C
:1026F0007F09072E000C880B990B0E9460939B01A9
:10270000AC01C501B4010E946E986B017C01B80157
:10271000110F880B990B0E9460939B01AC01C701BC
:10272000B6010E94929794CFAF92BF92CF92DF9260
:10273000EF92FF920F931F93CF93DF9320E030E04F
:1027400048E452E460919A0E70919B0E80919C0E29
:1027500090919D0E0E94B899C0E0181644F4EDE8DF
:10276000F6E1E491C1E001C0CC0FEA95EAF7D12C83
:10277000C12CA12CD0E0EE24E394F12CF601E95712
:10278000F94EB490F601E357F94E0491B7FC21C01D
:102790008A2D90E0002E02C0959587950A94E2F765
:1027A00080FD17C0BE01002E02C0759567950A9482
:1027B000E2F76170162F1195612F8B2D72DC612F5E
:1027C00070E08B2DCCDCC70101C0880F0A95EAF7B9
:1027D000A82A8FEFC81AD80A86E0C816D10471F665
:1027E000DF91CF911F910F91FF90EF90DF90CF90ED
:1027F000BF90AF9008950F931F938091FA0B813093
:1028000011F5D8DD00912A0B10912B0B20912C0B88
:1028100030912D0B601B710B820B930B28EE33E074
:1028200040E050E00E9434976091260B7091270B96
:102830008091280B9091290B620F731F841F951FA5
:102840001F910F9108956091F60B7091F70B809195
:10285000F80B9091F90BD6CF1092FA0B10922A0B2D
:1028600010922B0B10922C0B10922D0B1092F60B3A
:102870001092F70B1092F80B1092F90B1092260B96
:102880001092270B1092280B1092290B089580911B
:10289000FA0B8130D9F08230B9F4ADDF6093260BAA
:1028A0007093270B8093280B9093290B81E08093E2
:1028B000FA0B80DD60932A0B70932B0B80932C0B0B
:1028C00090932D0B81E00895C7DFF0CF80E008954D
:1028D0008091FA0B8150823068F41092FA0B6ADD15
:1028E0006093F60B7093F70B8093F80B9093F90BB2
:1028F00081E0089580E008951092660B1092990E81
:102900001092980E63DD1092010C1092000C36DECE
:10291000DFDF5CDD1092820B2C981092010C10927C
:10292000000C1092830B8091020180728093000151
:10293000089590916F00292F227091FF05C090910A
:102940006F009D7F90936F0034E0839FC00111243E
:10295000FC01E652F44F4081518162817381865EB1
:10296000944FFC01408351836283738381E08093A1
:10297000190B222329F080916F00826080936F00F1
:102980000895BC012091170B3091180B4091170B43
:102990005091180B2417350731F481E026173707BB
:1029A00009F080E008959A01F1CFEF92FF920F9322
:1029B0001F93E0920D03F0920E0300930F03109308
:1029C00010036093110370931203809313039FEF1E
:1029D000FF27621B730B840B30F480957095619513
:1029E000790B890B992790930C03A6E06A9F0092BC
:1029F0000003512DEE277A9F500DE11D8A9FE00DB7
:102A000050930103E0930203AFE06A9F0092040336
:102A1000512DEE277A9F500DE11D8A9FE00D5093B6
:102A20000503E0930603AAE06A9F00920803512D74
:102A3000EE277A9F500DE11D8A9FE00D5093090308
:102A4000E0930A031F910F91FF90EF9008958091FA
:102A5000CB0A80FF1EC089988FEF8093100280916F
:102A6000CB0A81FF19C08F988FEF8093110280915C
:102A7000CB0A82FF14C080910B01809582708093F5
:102A80000901439A8FEF80931202000000000000BA
:102A90000895899A81E0E1CF8F9A81E0E6CF809115
:102AA0000B01827080930901439881E0ECCF809103
:102AB000A10E9091A20E891B8F7019F490E080E016
:102AC000089590919E0E992351F0833030F48FEF4A
:102AD000890F19F080939E0EF1CF10929E0E809177
:102AE000A20E28E6829FC0011124875B9B4FFC0148
:102AF000208120FDE3CF2091A20E2F5F2F70209325
:102B00009F0E3091A20E2091A00E321304C020918E
:102B10009F0E2093A00E08959F92AF92BF92CF92E6
:102B2000DF92EF92FF920F931F93CF93DF9300D02A
:102B30001F921F92CDB7DEB7E0E9FBE00027BB276D
:102B4000462F572FA82FAA2341F4A52F542FB85F43
:102B5000AA2319F4A52F5527B85FA03138F4529550
:102B6000A295452F4F70507FA42BBC5FA03428F452
:102B7000550FAA1F550FAA1FBE5FA03818F4550F96
:102B8000AA1FB395550FAA1FEA0FF01F449151E0F9
:102B9000AA27B85079F1C0F0B0FF02C0440F551F0A
:102BA000B1FF04C0440F551F440F551FB2FF06C0AC
:102BB00052954295142F1F70407F512BB3FF1AC0BE
:102BC000A52F542F442716C0B195B0FF02C05595CC
:102BD0004795B1FF04C05595479555954795B2FF68
:102BE00005C05295407F4295452B5F70B3FF02C0F0
:102BF000452F5527DD24CC24BB24B2E0649FD01898
:102C0000C108B00AB00B749FC018B108B00B849F04
:102C1000B018B109659FC018B108B00B759FB01806
:102C2000B109859FB0196A9FB018B1097A9FB01990
:102C30004D9DA12C99243327992722275D9DA00C17
:102C4000911C301F901F201FAD9D900C311D901FB7
:102C5000201F4C9DA00C911C301F901F201F5C9DBD
:102C6000900C311D901F201FAC9D300D911D201F19
:102C70004B9D900C311D901F201F5B9D300D911DB1
:102C8000201FAB9D900D211D4B9F300D911D201FCE
:102C90005B9F900D211DAB9F200DB1E0BB24CC2488
:102CA000DD24639FD018C108B00AB00B739FC01811
:102CB000B108B00B839FB018B109699FC018B10863
:102CC000B00B799FB018B109899FB019629FB018F5
:102CD000B109729FB019D61AC70AB80A20F0B1E03C
:102CE0003B0F901F201F1124792F632F90E0822F1C
:102CF0000F900F900F900F900F90DF91CF911F9139
:102D00000F91FF90EF90DF90CF90BF90AF909F908A
:102D100008954F925F926F927F928F929F92AF929F
:102D2000BF92EF92FF920F931F93CF93DF93C1E275
:102D3000DCE08AE9E82E8CE0F82E08E01CE0412C6B
:102D4000512C320143946991799189919991F701BC
:102D500081909190A190B1907F010E945E93A50116
:102D600094010E94BF930E94DB98F80161937193D4
:102D7000819391938F01461657066806790610F4E1
:102D80002B013C01FCE0C133DF07E9F66FEF7FEF79
:102D9000CB01A30192010E94349720933504309314
:102DA00036044093370450933804DF91CF911F913C
:102DB0000F91FF90EF90BF90AF909F908F907F907A
:102DC0006F905F904F900895CF93DF9390916F0035
:102DD000292F227091FF05C090916F009D7F9093E5
:102DE0006F0094E0899FA0011124FA01E652F44F8C
:102DF0006081718182819381222329F020916F006B
:102E0000226020936F00EA01C75CDB4F0E94609351
:102E1000288139814A815B810E94BF93DF91CF91E4
:102E20000895CF93DF9390916F00292F227091FF27
:102E300005C090916F009D7F90936F0094E0899FF3
:102E4000A0011124FA01E65EF44F60817181828154
:102E50009381222329F020916F00226020936F003C
:102E6000EA01C75CDB4F0E946093288139814A8167
:102E70005B810E94BF93DF91CF910895CF92DF9243
:102E8000EF92FF928091200C882309F457C0C090E4
:102E90001C0CD0901D0CE0901E0CF0901F0C20E03C
:102EA00030E0A901C701B6010E945A93882309F4B2
:102EB00045C020E030E040E05FE3C701B6010E947A
:102EC000BF939B01AC010E94BF932BED3FE049E40F
:102ED00050E40E94BF939B01AC0160E070E080E889
:102EE0009FE30E946E986B017C01C0928F0CD09280
:102EF000900CE092910CF092920C609141027091D2
:102F00004202072E000C880B990B0E9460932AE066
:102F100037ED43E25CE30E94BF93A70196010E9454
:102F2000BF9360933D0270933E0280933F02909363
:102F30004002FF90EF90DF90CF900895C12CD12CEC
:102F400080E8E82E8FE3F82ED0CF2F923F924F9259
:102F50005F926F927F928F929F92AF92BF92CF9229
:102F6000DF92EF92FF920F931F93CF93DF93CDB732
:102F7000DEB762970FB6F894DEBF0FBECDBF588B99
:102F80004F87DC01CD90DD90ED90FC90DB018D91C1
:102F90009D910D90BC91A02D89839A83AB83BC83B6
:102FA00020E030E040EF51E4C701B6010E94919764
:102FB00029E838E848E05CE30E94BF930E94D69875
:102FC00016160CF023C161E0E62F660FFF0BFE839F
:102FD000ED838F010F5F1F4F20E030E040EF51E4A1
:102FE00069817A818B819C810E94919729E838E8D8
:102FF00048E05CE30E94BF930E94D69816160CF03E
:1030000009C161E0262E660F3308ED81FE81EE0FC7
:10301000FF1FEE0FFF1FED51F14F80809180A280C6
:10302000B3806D817E81660F771F8D819E81860FB3
:10303000971F9E838D83FC01E20DF31DEE0FFF1F92
:10304000EE0FFF1FED54F44F40805180628073807B
:10305000F801EE0FFF1FEE0FFF1FED51F14FA5011D
:10306000940160817181828193810E9491976F8325
:10307000788789879A87A5019401C701B6010E94C4
:1030800091976B877C878D879E87C801880F991FD2
:10309000080F191FF801E20DF31DEE0FFF1FEE0FD1
:1030A000FF1FED54F44FA301920160817181828171
:1030B00093810E9491972F81388549855A850E9476
:1030C0006E982B853C854D855E850E94BF93A3013C
:1030D00092010E9492976B017C01D1011196BA8BEB
:1030E000A98BED81FE81EA0FFB1FEE0FFF1FEE0F94
:1030F000FF1FED54F44F4080518062807380F101D6
:10310000EE0FFF1FEE0FFF1FE952F14F80809180FD
:10311000A280B3800A0F1B1FF801EE0FFF1FEE0FF6
:10312000FF1FED54F44FA3019201608171818281F0
:1031300093810E9491972F81388549855A850E94F5
:103140006E982B853C854D855E850E94BF93A301BB
:1031500092010E949297A70196010E9491972B01DC
:103160003C01E989FA89EE0FFF1FEE0FFF1FE952BC
:10317000F14FA501940160817181828193810E9448
:1031800091979B01AC01C301B2010E946E982B0183
:103190003C01A501940169817A818B819C810E9407
:1031A00091979B01AC01C301B2010E94BF93A7019B
:1031B00096010E949297AF85B8892D913D914D91CE
:1031C0005C910E94BF932091AF0B3091B00B409166
:1031D000B10B5091B20B0E94929762960FB6F89481
:1031E000DEBF0FBECDBFDF91CF911F910F91FF903A
:1031F000EF90DF90CF90BF90AF909F908F907F9097
:103200006F905F904F903F902F90089567FFDCCEB6
:1032100060E0DACE67FFF6CE60E0F4CE8F929F9248
:10322000AF92BF92CF92DF92EF92FF92CF93DF9354
:10323000EC018090770E9090780EA090790EB0906F
:103240007A0E20E030E0A901C501B4010E945A9332
:10325000882309F452C0C880D980EA80FB80A70186
:103260009601C501B4010E945A9318160CF04AC089
:1032700020916E0E30916F0E4091700E5091710E34
:10328000C701B6010E945A93882321F1C0926E0EA5
:10329000D0926F0EE092700EF092710E2091720E2D
:1032A0003091730E4091740E5091750EC701B601A6
:1032B0000E94BF939B01AC0160E070E080E89FE357
:1032C0000E94919760930002709301028093020222
:1032D00090930302609100027091010280910202BA
:1032E00090910302DF91CF91FF90EF90DF90CF900C
:1032F000BF90AF909F908F90089560E070E080E85D
:103300009FE3F0CF60E070E0CB01ECCF0F931F9311
:10331000CF93DF9300D01F92CDB7DEB78C01089614
:103320007DDF69837A838B839C83B8016C5F7F4FD9
:10333000AE014F5F5F4FC80108DE9B01AC01F80191
:1033400060857185828593850E949197F8016087D9
:103350007187828793870F900F900F900F90DF9166
:10336000CF911F910F910895CF92DF92EF92FF922C
:103370000F931F93CF93DF9300D01F92CDB7DEB78B
:103380002091760E2223E9F08A016B017C01CA01AB
:1033900045DF69837A838B839C83AE014F5F5F4FE8
:1033A000B601C701D2DD9B01AC01F80160817181DA
:1033B000828193810E949297F80160837183828356
:1033C00093830F900F900F900F90DF91CF911F91EB
:1033D0000F91FF90EF90DF90CF900895CF93DF9300
:1033E000EC0188818823F1F0739A89818823E1F0C8
:1033F000A59A809102019A8191118095887080939D
:103400000001688170E085E00E94AF10698170E082
:1034100084E00E94AF106A8170E086E0DF91CF9176
:103420000C94AF107398E1CFA598E3CFCF93DF93BF
:1034300080912F0465995BC0816080932F049091E7
:10344000030180912F0491FD54C0826080932F046A
:1034500080912F044B994FC0846080932F048091FA
:103460002F0490912E04981709F447C097E0909389
:103470002D0480932E0480911B0C882309F44AC0EC
:10348000C0910A0BC0FF0FC08091CB0A80FF0BC018
:1034900080912C0480FF07C08091580E816080933A
:1034A000580E80E046DAC1FF0FC08091CB0A81FF41
:1034B0000BC080912C0481FF07C08091580E826060
:1034C0008093580E81E035DAC2FF24C08091CB0A88
:1034D00082FF20C080912C0482FF1CC08091580E76
:1034E00084608093580E82E0DF91CF9122CA8E7F54
:1034F000A4CF8D7FABCF8B7FB0CF80912D0488235D
:1035000009F4B9CF815080932D048111B4CF9093E9
:103510002C04B1CFDF91CF910895CF92DF92EF923B
:10352000FF92CF93DF93EC01C090830CD090840C7A
:10353000E090850CF090860CA70196016881798156
:103540008A819B810E945A9387FF04C0C882D982D6
:10355000EA82FB82C090870CD090880CE090890CA6
:10356000F0908A0CA70196016C817D818E819F81EC
:103570000E945A9387FF04C0CC82DD82EE82FF82D4
:10358000C0903102D0903202E0903302F0903402C9
:10359000A7019601688179818A819B810E94B899EF
:1035A000181624F4C882D982EA82FB82C0903502C0
:1035B000D0903602E0903702F0903802A7019601D1
:1035C0006C817D818E819F810E94B899181624F4A8
:1035D000CC82DD82EE82FF82C0908B0CD0908C0C6E
:1035E000E0908D0CF0908E0CA7019601688579858E
:1035F0008A859B850E945A9387FF04C0C886D98616
:10360000EA86FB86C0903902D0903A02E0903B02F5
:10361000F0903C02A7019601688579858A859B8593
:103620000E94B899181624F4C886D986EA86FB86C3
:10363000DF91CF91FF90EF90DF90CF9008955F9A48
:103640008091990C8E7F8093990C8A9A8091990C25
:103650008D7F8093990C8091080180958170809373
:103660000601479A8091990C8B7F8093990C129A4E
:103670000895CF93DF9380E0A7DBC3E0D4E06883B5
:1036800079838A839B8381E09FDB6C837D838E8338
:103690009F8382E099DB688779878A879B87DF91A0
:1036A000CF910895CF93DF93C3EBDBE020E030E0D0
:1036B000A901688179818A819B810E945A93811135
:1036C0001FC020E030E0A9016C817D818E819F8147
:1036D0000E945A93811114C020E030E0A90168854E
:1036E00079858A859B850E945A93811109C02C9601
:1036F0008BE0C73DD807D1F680E0DF91CF910895E8
:1037000081E0FBCF0F931F93CF93DF9394E0899FCA
:10371000E00111248E010958134FFE01E559F34FC2
:10372000DE01A651B44F2D913D914D915C91608188
:103730007181828193810E949297F80160837183E5
:1037400082839383FE01E755FD4F85919591A59165
:10375000B491FE01ED57F34F80839183A283B3832D
:10376000FE01EB54FD4F85919591A591B491CF5CED
:10377000DD4F88839983AA83BB83DF91CF911F910B
:103780000F91089590911503E92FF0E0E753F34F5F
:1037900080839F5F943040F49093150380915A0E7C
:1037A0008F5F80935A0E089510921503F7CF2FEB79
:1037B000280F2A3108F042C0E22FF0E08091AB0BD5
:1037C0009091AC0BA091AD0BB091AE0B04C0B6952F
:1037D000A795979587952A95D2F780FD02C08170AD
:1037E0000895EF56F44FE081EE2329F180915B0EAE
:1037F00090915C0EE80FF92FF11D808190ED980FEC
:103800009A3030F08E3251F4818180538A3098F4AE
:10381000F0934E0CE0934D0C81E008958D3211F041
:103820008B3249F4818190ED980F9A3088F38E3273
:1038300011F48281EACFF0E0E0E0EACF80E0089581
:10384000B6DF882341F081E020914D0C30914E0C81
:10385000232B09F480E0089580E1ECE7FEE0ADE57C
:10386000BEE001900D928A95E1F708959091C00015
:1038700095FFFCCF8093C6000895FF920F931F938E
:10388000CF93DF9380917B0E082F0270182F147056
:10389000982F9170F92E80FD10C0C3EBDEE1FE0180
:1038A00084912196811114C0CDEADEE1FE0184915C
:1038B0002196882379F0DADFF9CF002371F380E0D5
:1038C000112359F3DF91CF911F910F91FF9008952C
:1038D000CDDFE5CFF11009C0CBEADEE1FE01849136
:1038E0002196882311F0C2DFF9CF011109C0C9EA7E
:1038F000DEE1FE0184912196882311F0B7DFF9CF34
:10390000111109C0C7EADEE1FE01849121968823E6
:1039100011F0ACDFF9CFCFE9DEE1FE018491219611
:10392000882311F0A3DFF9CF81E0CCCF0F931F9351
:10393000CF93DF93162F072FEC01FE018491219680
:10394000811107C0C12FD02F8991882321F08EDFEC
:10395000FBCF8CDFF2CFDF91CF911F910F910895B4
:10396000CF93DF93C3EBDEE1FE01849121968823A0
:1039700011F07CDFF9CF60915B0E70915C0E8CE8EA
:103980009EE1D4DF82E272DF8AE0DF91CF916ECFD9
:103990001F93CF93DF93182FEB01FE0184912196A3
:1039A000811109C0CFE3D9E0FE01849121968823DB
:1039B00021F05CDFF9CF5ADFF0CFCAE3D9E0112361
:1039C00011F0C0E3D9E0FE0184912196882311F023
:1039D0004DDFF9CF8AE0DF91CF911F9147CFCF9391
:1039E000DF93E4E5F9E08491882341F0C5E5D9E06F
:1039F0003DDFFE01849121968111FACF8CB1C1E0A7
:103A000085FB882780F96EE479E08C27C1DF8091FF
:103A100003018695817068E479E08C27B9DF89B16C
:103A200083FB882780F962E479E08C27DF91CF91CE
:103A3000AFCFCF93DF938F38924091F0C9EEDEE1A4
:103A4000FE0184912196811109C0CDEAD5E0FE01E5
:103A500084912196882341F009DFF9CF07DFF0CF69
:103A600080E0DF91CF91089581E0FBCFCF93DF938A
:103A7000C0E9D5E0FE0184912196882311F0F6DE9D
:103A8000F9CF8AE0DF91CF91F1CECF93DF93C9EEEA
:103A9000DEE1FE0184912196811109C0C6EDD2E0DC
:103AA000FE0184912196882321F0E0DEF9CFDEDE4D
:103AB000F0CFDF91CF910895CF93DF93C1ECD2E0A7
:103AC000FE0184912196882311F0D0DEF9CFDF9199
:103AD000CF91089580910104909102042FEF3FEF60
:103AE000981751F0E92FF0E0EF57FC4F208130E0BC
:103AF0009F5F9F7790930204C90108951092AF0BC6
:103B00001092B00B1092B10B1092B20BE3EBFBE0F2
:103B100084E2DF011D928A95E9F70895C9EEDEE19E
:103B2000FE0184912196811109C0C9ECDEE1FE01FC
:103B300084912196882321F099DEF9CF97DEF0CF8A
:103B40000E947C147CDDFFEF2BE48DE1F1502040DE
:103B50008040E1F700C00000F8949FEFE4E3FCE050
:103B60009150E040F040E1F700C000000E947C145A
:103B7000A895FECF80916D0B90916E0B0E942F1235
:103B800060939A0E70939B0E80939C0E90939D0E63
:103B90008091690B90916A0B0E9405136093840BCE
:103BA0007093850B8093860B9093870BA89510924A
:103BB0006F0B0895CF92DF92EF92FF920F931F93B6
:103BC000CF93DF93CDB7DEB7A0970FB6F894DEBFE3
:103BD0000FBECDBF611571058105910571F100E042
:103BE000C42ED12CF12CE12CA70196010E94349710
:103BF00011E0100FE1E0F0E0EC0FFD1FE00FF11D10
:103C000007FDFA956083B901CA01012F611571059D
:103C10008105910549F7115000F1E1E0F0E0EC0F6A
:103C2000FD1FE10FF11D17FDFA95908187E39A3092
:103C300008F480E3890F1ADEEECF80E3A0960FB67A
:103C4000F894DEBF0FBECDBFDF91CF911F910F91D2
:103C5000FF90EF90DF90CF9009CEA0960FB6F8942A
:103C6000DEBF0FBECDBFDF91CF911F910F91FF90AF
:103C7000EF90DF90CF900895CF92DF92EF92FF9276
:103C8000CF93DF936A017B01EC01FE0184912196C1
:103C9000882311F0EBDDF9CF4AE0C701B601DF91CF
:103CA000CF91FF90EF90DF90CF9084CFCF92DF92B3
:103CB000EF92FF926B017C01F7FE0AC08DE2D6DD28
:103CC000F094E094D094C094C11CD11CE11CF11C70
:103CD0004AE0C701B601FF90EF90DF90CF906ACF26
:103CE000FF920F931F93CF93DF93182F062FF72E7A
:103CF00080914502882339F1C9EEDEE1FE0184910D
:103D00002196811110C0C02FDF2DFE0184912196D4
:103D100081110BC0C8E9D6E1FE0184912196882368
:103D200031F0A4DDF9CFA2DDE9CFA0DDEECFC3E90C
:103D3000D6E117FD12C0612F110F770B880B990B7D
:103D4000B5DF8AE093DD80912E0B81110DC01092BA
:103D5000450281E080932E0BE1DEFE0184912196E5
:103D6000882389F383DDF9CFDF91CF911F910F91E4
:103D7000FF900C947C142F923F924F925F926F921F
:103D80007F928F929F92AF92BF92CF92DF92EF92EB
:103D9000FF920F931F93CF93DF9300D0CDB7DEB781
:103DA0005C011B014A01098381E090E09B838A83C7
:103DB000011102C01B821A82F90140805180628089
:103DC00073808A819B81880F991F880F991F9B831D
:103DD0008A838C01025A144FA3019201F801608179
:103DE0007181828193810E945A93882391F0F80116
:103DF000408251826282738211E020E030E0A901AA
:103E0000C301B2010E94B89918160CF010E0F50138
:103E10001083F50180818230D1F0833009F46FC0C6
:103E2000813009F046C0EA81FB81E25AF44F2081DB
:103E3000318142815381F40160817181828193815A
:103E40000E945A9387FD35C082E0F50180838A8104
:103E50009B81825A944F9B838A83B60190E080E0D5
:103E60000E945E939B01AC01EA81FB8160817181BC
:103E7000828193810E9491979B01AC01F401608142
:103E80007181828193810E94B89987FD28C00E9428
:103E9000DA114B015C019701A8EEB3E00E94829712
:103EA000860E971EA81EB91EF10180829182A28201
:103EB000B3820F900F900F90DF91CF911F910F91D0
:103EC000FF90EF90DF90CF90BF90AF909F908F903A
:103ED0007F906F905F904F903F902F9008950E9439
:103EE000DA11F1010081118122813381601B710B94
:103EF000820B930B97FDDDCF83E0F5018083F98181
:103F000049EF57E1FF3F11F44CE058E160E278E1FE
:103F100089810F900F900F90DF91CF911F910F919A
:103F2000FF90EF90DF90CF90BF90AF909F908F90D9
:103F30007F906F905F904F903F902F90D1CE4F9297
:103F40005F926F927F928F929F92AF92BF92CF9229
:103F5000DF92EF92FF920F931F93CF93DF93CDB732
:103F6000DEB760970FB6F894DEBF0FBECDBF80916D
:103F70006F0B811117C060960FB6F894DEBF0FBEAD
:103F8000CDBFDF91CF911F910F91FF90EF90DF9008
:103F9000CF90BF90AF909F908F907F906F905F90E9
:103FA0004F900895E7DD0E94DA114B015C016091AA
:103FB000980E7091990E072E000C880B990B0E9499
:103FC000609369837A838B839C8344E0C42ED12CD5
:103FD00058E2E52EF12C00E09E012F5F3F4F4AE9A9
:103FE0005EE063E57BE087E59BE0C5DEC0909A0E6E
:103FF000D0909B0EE0909C0EF0909D0E6091510B26
:104000007091520B072E000C880B990B0E94609345
:104010009B01AC01C701B6010E94B89918160CF0BB
:104020001EC16091210270912202072E000C880BA4
:10403000990B0E9460939B01AC01C701B6010E94DD
:104040005A9387FF0CC10091980E1091990EB801F8
:10405000012E000C880B990B0E946093A70196011A
:104060000E9491976D837E838F83988720ED3CEC2F
:104070004CE45DE36091AA0C7091AB0C8091AC0CA8
:104080009091AD0C0E94BF932B013C012091440BF9
:104090003091450B4091460B5091470BC701B6013B
:1040A0000E9491979B01AC01C301B2010E94BF9392
:1040B0002B013C0123E333E343E75FE36091400BD3
:1040C0007091410B8091420B9091430B0E94BF93E2
:1040D0009B01AC01C301B2010E9492972B013C01EC
:1040E0004092400B5092410B6092420B7092430BF6
:1040F000C092440BD092450BE092460BF092470BD6
:1041000020E030E048EC51E46D817E818F8198851C
:104110000E94B89918160CF450C220E030E048EC28
:1041200051EC6D817E818F8198850E945A9387FD25
:1041300049C2012B09F446C280913F0B811146C24E
:1041400020913B0B30913C0B40913D0B50913E0B2D
:1041500029873A874B875C872091B20C3091B30C4A
:104160004091B40C5091B50C6D817E818F81988502
:104170000E94BF936D877E878F87988B29853A85AC
:104180004B855C856D817E818F8198850E94929799
:1041900069877A878B879C8760933B0B70933C0B76
:1041A00080933D0B90933E0B2091AE0C3091AF0C61
:1041B0004091B00C5091B10C0E94BF932D853E856B
:1041C0004F8558890E949297A30192010E9491976E
:1041D0002B013C0120E030E048E453E40E94B89910
:1041E00020E030E0A90118160CF0F7C16D817E8146
:1041F0008F8198850E94B899181694F42D813E817C
:104200004F81588569857A858B859C850E94919719
:1042100060933B0B70933C0B80933D0B90933E0B54
:1042200064E61EC020E030E0A9016D817E818F81AF
:1042300098850E945A9387FF12C02D813E814F813D
:10424000588569857A858B859C850E9491976093B6
:104250003B0B70933C0B80933D0B90933E0B60E0C7
:104260006093820B8091920E9091930EA091940E88
:10427000B091950E0097A105B10501F1A50194013A
:10428000281B390B4A0B5B0BDA01C901B7FD16C0BD
:104290006091960E7091970E90E080E00E945E9380
:1042A0009B01AC01C701B6010E945A9387FF72C1FE
:1042B00048ED56E16AEE76E180E012DD80914D0B2B
:1042C00090914E0BA0914F0BB091500BA501940112
:1042D000281B390B4A0B5B0BDA01C901B7FF49C137
:1042E0008091580B9091590BA0915A0BB0915B0B98
:1042F0000097A105B10511F1881A990AAA0ABB0A0B
:10430000B7FC1CC060915C0B70915D0B90E080E08D
:104310000E945E939B01AC016091840B7091850BB0
:104320008091860B9091870B0E945A9387FF35C12D
:1043300046EB56E169EC76E18FEFD2DC6091000C40
:104340007091010C072E000C880B990B0E94609352
:1043500069837A838B839C8392E0C92ED12C24E1DC
:10436000E22EF12C0FEF9E012F5F3F4F44E85BE000
:1043700068E47BE08CE49BE0FEDCC090840BD09092
:10438000850BE090860BF090870B20E030E040EA50
:1043900050E4C701B6010E94B89987FDE6C020E04D
:1043A00030E046E153E4C701B6010E945A93181663
:1043B0000CF4DBC06091000C7091010C072E000C16
:1043C000880B990B0E946093A70196010E94919718
:1043D0004B015C012091C00C3091C10C4091C20C8A
:1043E0005091C30C0E94BF9369877A878B879C8703
:1043F0002091370B3091380B4091390B50913A0B8B
:10440000C501B4010E9492976D837E838F83988744
:104410006093370B7093380B8093390B90933A0B62
:104420002091BC0C3091BD0C4091BE0C5091BF0C42
:104430000E94BF936D877E878F87988B20ED3CEC21
:104440004CE45DE36091B80C7091B90C8091BA0CAA
:104450009091BB0C0E94BF932B013C012091330B28
:104460003091340B4091350B5091360BC701B6019A
:104470000E9491979B01AC01C301B2010E94BF93BE
:104480002B013C0123E333E343E75FE360912F0B10
:104490007091300B8091310B9091320B0E94BF9341
:1044A0009B01AC01C301B2010E9492972B013C0118
:1044B00040922F0B5092300B6092310B7092320B66
:1044C000C092330BD092340BE092350BF092360B46
:1044D0002D853E854F85588969857A858B859C8594
:1044E0000E949297A30192010E9491976B017C0117
:1044F00020E030E04FE753E40E94B89920E030E03C
:10450000A90118160CF04CC0C501B4010E94B8995D
:10451000181684F4A50194016D817E818F819885A0
:104520000E9491976093370B7093380B8093390BEF
:1045300090933A0B6FE71AC020E030E0A901C50163
:10454000B4010E945A9387FF10C0A50194016D81A8
:104550007E818F8198850E9491976093370B70932D
:10456000380B8093390B90933A0B60E06093830B88
:1045700002CD0E949413D501C4018C53964FAF4FC6
:10458000BF4F80934D0B90934E0BA0934F0BB09366
:10459000500BA6CE0E94E61191CE0E94BE12CECE46
:1045A000C701B6010E945A9387FDC6CFC701B60165
:1045B0000E94D69875956795D9CF81E080933F0B7F
:1045C00064E64ECE81E080933F0B49CE10923F0BC4
:1045D00019861A861B861C86BFCDC301B2010E94B4
:1045E0005A9387FD1FCEC301B2010E94D6987595DC
:1045F000679536CE0F931F93CF93DF93EB018C011A
:10460000F80184910F5F1F4F882311F02FD9F8CF45
:10461000BE01DD0F880B990BDF91CF911F910F9198
:1046200045CBCF93DF938091010480930204C9EAC4
:10463000D3E0FE0184912196882311F017D9F9CF98
:1046400060918E0E70918F0E8091900E9091910ED0
:104650006F5F7F4F8F4F9F4F29DB8AE007D9E09133
:10466000590EF0E0E753F34F8081882319F0DF9172
:10467000CF91FCC9DF91CF9108950F931F93CF93F2
:10468000DF93182F092FC9EEDEE1FE0184912196F8
:10469000811109C0C12FD02FFE018491219688235A
:1046A00021F0E4D8F9CFE2D8F0CF60918E0E70916E
:1046B0008F0E8091900E9091910EF8DA8AE0D6D804
:1046C000B0DF10928D0E10928C0EDF91CF911F9162
:1046D0000F910895FF920F931F93CF93DF93082FAD
:1046E000F92E162FC0E1D3E0FE01849121968111AD
:1046F00010C0C02FDF2DFE018491219681110BC0C7
:10470000CEE0D3E0FE0184912196882331F0AED82B
:10471000F9CFACD8E9CFAAD8EECF612F70E090E006
:1047200080E0C4DA8AE0DF91CF911F910F91FF9072
:104730009DC88F929F92AF92BF92CF92DF92EF92DD
:10474000FF92CF936B017C01B42E20E030E0A901F1
:104750000E945A9387FF06C08DE288D8F7FAF0943A
:10476000F7F8F094C0E060E070E080E09FE3CB15E4
:1047700041F02DEC3CEC4CEC5DE30E94BF93CF5F2D
:10478000F6CF9B01AC01C701B6010E9492976B0165
:104790007C010E94DB984B015C014AE00BDACC23E0
:1047A00081F1C501B4010E945E939B01AC01C70178
:1047B000B6010E9491976B017C018EE257D8C150DF
:1047C00000F120E030E040E251E4C701B6010E9470
:1047D000BF934B015C010E94D6986B01770FEE08E6
:1047E000FF08C701B60162DAC701B6010E946093F3
:1047F0009B01AC01C501B4010E9491976B017C0142
:10480000DECFCF91FF90EF90DF90CF90BF90AF9031
:104810009F908F900895CF92DF92EF92FF92CF9367
:10482000DF936A017B01EC01FE01849121968823CC
:1048300011F01CD8F9CF42E0C701B601DF91CF914A
:10484000FF90EF90DF90CF9074CFFF920F931F9364
:10485000CF93DF938C01EB01F42E80E207D88FEF2A
:10486000F816E9F084E502D88AE300D8F8016081FF
:1048700071818281938142E05CDF488159816A8144
:104880007B8186E998E1C7DF62E070E080E090E03C
:10489000DF91CF911F910F91FF900C94A91182E4A9
:1048A000E2CF0F931F93CF93DF9300D000D01F92DE
:1048B0001F92CDB7DEB76091980E7091990E072EBA
:1048C000000C880B990B0E9460936D837E838F830D
:1048D000988780919A0E90919B0EA0919C0EB0911A
:1048E0009D0E89839A83AB83BC834DEFBE016B5FC2
:1048F0007F4FCE010196A9DF6091000C7091010CF1
:10490000072E000C880B990B0E9460936D837E83A9
:104910008F8398878091840B9091850BA091860B53
:10492000B091870B89839A83AB83BC834FEFBE0121
:104930006B5F7F4FCE01019688DF0EE918E1F80129
:1049400084910F5F1F4F882319F00E94361CF7CF08
:10495000E091B70CF0E0EE57F44F608170E090E02A
:1049600080E0A4D909E918E1F80184910F5F1F4F95
:10497000882319F00E94361CF7CF6091830B70E0FA
:1049800090E080E093D928960FB6F894DEBF0FBE72
:10499000CDBFDF91CF911F910F9108952F923F923C
:1049A0004F925F926F927F928F929F92AF92BF923F
:1049B000CF92DF92EF92FF920F931F93CF93DF93EB
:1049C000CDB7DEB7CB55D1090FB6F894DEBF0FBE19
:1049D000CDBF9B838A8369834AA767962FAF67976A
:1049E0000E94DA116C877D878E879F8749800CE350
:1049F00010E047FC02C004E110E0AA81BB814D90A9
:104A00005D906D907C9026964CAE5DAE6EAE7FAEA6
:104A100026978C859D85AE85BF858C53964FAF4F6D
:104A2000BF4F80934D0B90934E0BA0934F0BB093C1
:104A3000500B89818F5F823070F489E4E82E86E123
:104A4000F82EF7018491FFEFEF1AFF0A882399F0FF
:104A50000E94361CF6CFEDE5F6E1FB83EA83EA819E
:104A6000FB8184913196FB83EA83882309F41CC47B
:104A70000E94361CF4CF0E947C1429812F3F09F03C
:104A800088C18FE78093830BBFE74B2E512C612C9D
:104A9000712C4C825D826E827F829801A8EEB3E019
:104AA0000E9482976DA77EA78FA798AB2B013C0130
:104AB0002C853D854E855F85420E531E641E751EF6
:104AC0004DAA5EAA6FAA78AE81E080934602398132
:104AD0008FEF90E0A0E0B0E03F3F21F088EC90E065
:104AE000A0E0B0E09C01AD01235131094109510919
:104AF0002A962CAF3DAF4EAF5FAF2A979C01AD0118
:104B0000245131094109510966962CAF3DAF4EAF92
:104B10005FAF66972C013D01759467945794479455
:104B20002E964CAE5DAE6EAE7FAE2E979C01AD0163
:104B3000215031094109510962962CAF3DAF4EAF6A
:104B40005FAF629739813F3F09F02CC14DE755E1D6
:104B50005FAF4EAF83EB95E122969FAF8EAF22976A
:104B6000CC80DD80EE80FF804C845D846E847F8409
:104B7000488A598A6A8A7B8A49AA5AAA6BAA7CAA55
:104B800019A619AE1AAE1BAE1CAE188620E42A8FE9
:104B90003CE13B8F46E44C8F1E8A1F8A188E198E8B
:104BA00019A21AA21BA21CA21D8E1E8E1F8E18A255
:104BB000812C912C54011DA21EA21FA218A651E007
:104BC0006C965FAF6C971D8A1C8A212C312C00E0FB
:104BD00010E04AA4042C000C550869965FAE4EAE56
:104BE000699780914602882309F496C30E94DA11DE
:104BF0002B013C0120916F0B2DAF222309F4A7C09C
:104C00000E94BA1D39813111D8C020909A0E30907F
:104C10009B0E00919C0E10919D0E9101A8016E8932
:104C20007F89888D998D0E945A9387FF04C02E8AB0
:104C30003F8A088F198F9101A80168857A8D8B8D25
:104C40009C8D0E94B899181624F428863A8E0B8FF2
:104C50001C8F80914D0B90914E0BA0914F0BB091FA
:104C6000500BA3019201281B390B4A0B5B0BDA0195
:104C7000C901B7FD10C00E949413D301C2018C5327
:104C8000964FAF4FBF4F80934D0B90934E0BA09319
:104C90004F0BB093500BAA81BB81BC91BAA7EA819C
:104CA000FB81F181FBA7AA81BB811296BC91BCA7B5
:104CB000EA81FB81F3816A96FFAF6A976C962FAD0C
:104CC0006C97222309F443C32AA53BA54B2F5F2FE2
:104CD000B101C8010E94B8991816CCF5B301A20120
:104CE00088899989AA89BB89481B590B6A0B7B0B58
:104CF000DB01CA0188589341A109B109B7FD27C05A
:104D00008C819D81AE81BF818C199D09AE09BF093F
:104D1000B595A79597958795E981EF3F09F056C01E
:104D20008093830B4DA35EA36FA378A7FAA5FE8B98
:104D30002BA52F8B3CA5388F6A964FAD6A97498F6C
:104D40004C865D866E867F866C961FAE6C9720E0E3
:104D500030E040EA51E4AA81BB816D917D918D9153
:104D60009C910E9492979101A8010E945A9387FFFB
:104D700065C1E5EDF5E1FB83EA83EA81FB8184917E
:104D80003196FB83EA83882309F4C6C20E94361C4D
:104D9000F4CF84E68093820BA4E64A2E512C612C3A
:104DA000712C77CEAAE6B5E1BFAFAEAFE1EAF5E18F
:104DB0002296FFAFEEAF2297D3CE2090840B309097
:104DC000850B0091860B1091870B27CF8093820B68
:104DD000A9CF6696CCACDDACEEACFFAC6697CC82CE
:104DE000DD82EE82FF8262968CAD9DADAEADBFAD31
:104DF00062978C199D09AE09BF096C017D0141E4E0
:104E000056E16B965FAF4EAF6B976B96EEADFFAD15
:104E10006B97849131966B96FFAFEEAF6B978823BB
:104E200089F00E94361CF1CF24E130E040E050E0F0
:104E30002C833D834E835F8344E1C42ED12CE12C2F
:104E4000F12CDDCF6C817D818E819F810E94561E69
:104E50002CE336E16B963FAF2EAF6B976B96EEADC2
:104E6000FFAD6B97849131966B96FFAFEEAF6B976A
:104E7000882319F00E94361CF1CFC701B6010E94A9
:104E8000561E48855A8D6B8D7C8D85E396E1C3DC7B
:104E90004E895F89688D798D8EE296E1BCDC2C8924
:104EA0003D89233031050CF495C0C701B6010E943D
:104EB000609320E030E040E850E40E94BF934B0153
:104EC0005C0128853A8D4B8D5C8D6E897F89888D3C
:104ED000998D0E9491972BED3FE049E450E40E94A8
:104EE000BF9320E030E040E05FE30E94BF939B016E
:104EF000AC01C501B4010E946E984B015C01688948
:104F000079898A899B890E9460932FE632E143E880
:104F10005AE30E94BF93688779878A879B87B50188
:104F2000A40188E296E177DC488559856A857B850E
:104F300082E296E170DC2AE939E949E15FE3C501E3
:104F4000B4010E94BF934B015C01AC019B010E9424
:104F50009297288539854A855B850E946E986D8F6A
:104F60007E8F8F8F98A3A5019401688579858A85A6
:104F70009B850E94BF9320E030E040E05EE30E940A
:104F8000BF9369A37AA38BA39CA342E156E15987FF
:104F90004887E885F98584913196F987E8878823E1
:104FA00019F00E94361CF5CFB501A4018CE096E102
:104FB00032DC4D8D5E8D6F8D78A186E096E12BDC25
:104FC00049A15AA16BA17CA180E096E124DC8AE092
:104FD0000E94361C8C819D81AE81BF818C0D9D1DF0
:104FE000AE1DBF1DB595A79597958795F981FF3F94
:104FF00011F58093830B2C893D892F5F3F4F3D8BAB
:105000002C8BAA81BB81BC91B887EA81FB81F1819D
:10501000FA8FAA81BB811296BC91BB8FEA81FB817A
:10502000F381FC8F488A598A6A8A7B8A2DAD6C96F7
:105030002FAF6C978CCE8093820BDDCFD301C20152
:1050400029A93AA94BA95CA9821B930BA40BB50B08
:10505000B7FD4BC026DC8AE00E94361CD301C2019A
:105060008053984FAF4FBF4F89AB9AABABABBCAB44
:1050700099A591117CC029AD3AAD4BAD5CADB101A4
:10508000C8010E94B89918160CF05BC020E030E00F
:1050900040E050E4B101C8010E94929769AF7AAF35
:1050A0008BAF9CAF2DA53EA54FA558A9240D351D4E
:1050B000461D571D2DAB3EAB4FAB58AF20E030E047
:1050C00040EC50E426966CAD7DAD8EAD9FAD26973D
:1050D0000E9491979B01AC0181E089A7B101C801B1
:1050E0000E94B89918160CF019A6D301C201880FB6
:1050F000991FAA1FBB1F4C855D856E857F854888DB
:1051000059886A887B88440D551D661D771D841B50
:10511000950BA60BB70B81389F44A241B10508F44B
:105120003EC04CE455E15B834A83EA81FB81849174
:105130003196FB83EA83882309F4EEC00E94361C73
:10514000F4CFD301C2012DA93EA94FA958AD821BAE
:10515000930BA40BB50B22964EAD5FAD229766EC78
:1051600075E1B7FDC2CF89810E94701EBECF20E0DD
:1051700030E040EA51E4AA81BB816D917D918D912F
:105180009C910E9491979101A8010E94B8991816CC
:105190000CF0ABCF4EAD5FAD61E975E1E4CF699640
:1051A0004EAC5FAC69976C887D88461457040CF050
:1051B00018CD2FEE34E13B832A83EA81FB81849171
:1051C0003196FB83EA83882319F00E94361CF5CFC1
:1051D000F981FF3F09F082C02AED32E03B832A8348
:1051E0006A817B818EED94E10E94961CB501A40139
:1051F0008AED94E110DB8AE00E94361C6A817B8193
:1052000089EC94E10E94961C4D8D5E8D6F8D78A186
:1052100085EC94E100DB8AE00E94361C6A817B8188
:1052200084EB94E10E94961C49A15AA16BA17CA138
:1052300080EB94E1F0DA8AE00E94361C67964FAC6E
:105240006797442089F12CEA35EC47E25EE36D8DE7
:105250007E8D8F8D98A10E94BF936B017C012CEAFB
:1052600035EC47E25EE369A17AA18BA19CA10E9483
:105270006E9829812F3FB9F58092C00C9092C10C95
:10528000A092C20CB092C30CC092BC0CD092BD0CC8
:10529000E092BE0CF092BF0C6093B80C7093B90C06
:1052A0008093BA0C9093BB0CC55ADF4F0FB6F8949D
:1052B000DEBF0FBECDBFDF91CF911F910F91FF9049
:1052C000EF90DF90CF90BF90AF909F908F907F90A6
:1052D0006F905F904F903F902F90089544EF52E071
:1052E0005B834A837DCF8092B20C9092B30CA092E4
:1052F000B40CB092B50CC092AE0CD092AF0CE09250
:10530000B00CF092B10C6093AA0C7093AB0C80932C
:10531000AC0C9093AD0CC8CFC55ADF4F0FB6F894C4
:10532000DEBF0FBECDBFDF91CF911F910F91FF90D8
:10533000EF90DF90CF90BF90AF909F908F907F9035
:105340006F905F904F903F902F900C947C142AA503
:105350003BA54CA56A965FAD6A97B101C8010E9452
:105360005A9387FFF4CCD301C2012C853D854E852D
:105370005F85821B930BA40BB50BAC01BD01485894
:1053800053416109710977FDE2CC4C895D89452B58
:1053900009F420CE2DA13EA14FA158A5280F391FF9
:1053A0004A1F5B1F288B398B4A8B5B8B2DA13EA13B
:1053B0004FA158A5281B390B4A0B5B0BC701B6013F
:1053C0000E942597288939894A895B890E945697C6
:1053D000CC80DD80EE80FF80C20ED31EE41EF51E61
:1053E00034E1C316D104E104F1040CF41DCD2A9676
:1053F0008CAD9DADAEADBFAD2A97C816D906EA06F5
:10540000FB060CF0E6CC2E962CAD3DAD4EAD5FAD5F
:105410002E972C153D054E055F050CF4E0CCCC8293
:10542000DD82EE82FF82EBCC4F925F926F927F9291
:105430008F929F92AF92BF92CF92DF92EF92FF92A4
:10544000CF93DF932091770C3091780C4091790CB9
:1054500050917A0C60917C0E70917D0E80917E0E41
:1054600090917F0E0E949297AB01BC018BE093E07C
:10547000D2D920917B0C30917C0C40917D0C5091C5
:105480007E0C6091800E7091810E8091820E9091C1
:10549000830E0E949297AB01BC0187E093E0BBD9D9
:1054A00020917F0C3091800C4091810C5091820CA6
:1054B0006091840E7091850E8091860E9091870E7A
:1054C0000E949297AB01BC0183E093E0A4D9409184
:1054D000880E5091890E60918A0E70918B0E8FEF1D
:1054E00092E099D980916F00982F927081FF05C04A
:1054F00080916F008D7F80936F004090DA0B509009
:10550000DB0B6090DC0B7090DD0B8090DE0B9090DD
:10551000DF0BA090E00BB090E10BC090E20BD090BD
:10552000E30BE090E40BF090E50B992329F08091D8
:105530006F00826080936F00C5EFD2E0FE0184911E
:105540002196882319F00E94361CF8CFC301B201BE
:105550000E94561EC1EFD2E0FE018491219688235D
:1055600019F00E94361CF8CFC501B4010E94561EE6
:10557000CDEED2E0FE0184912196882319F00E949D
:10558000361CF8CFC701B6010E94561E8AE0DF9193
:10559000CF91FF90EF90DF90CF90BF90AF909F9012
:1055A0008F907F906F905F904F900C94361CCF93AC
:1055B000DF930E94391B8BE50E94361CC3E0D4E0C8
:1055C000688179818A819B8142E0B3D84C815D8179
:1055D0006E817F8183ED92E01ED9488559856A8569
:1055E0007B8580ED92E017D98DE50E94361C8AE01C
:1055F000DF91CF910C94361C7F928F929F92AF9245
:10560000BF92CF92DF92EF92FF920F931F93CF93AF
:10561000DF93CCE8D9E0FE018491219681110AC084
:10562000C1E8D9E0FE0184912196882331F00E94DF
:10563000361CF8CF0E94361CEECF6091AF0B7091F4
:10564000B00B8091B10B9091B20B45E072D8CEE6D1
:10565000D9E0FE0184912196882319F00E94361C1E
:10566000F8CFC12CD12C7601C9E0C15021F080E2E5
:105670000E94361CFACFC701B6010E94561EFFEFEA
:10568000CF1ADF0AEF0AFF0A83E0C816D104E1044B
:10569000F10451F78AE00E94361CC3EBDBE0C12C19
:1056A000D12C760180E20E94361CC701B6010E940F
:1056B000561E8E0183E0782E80E20E94361CF8018F
:1056C00080809180A280B380A5019401C501B401BE
:1056D0000E943E9A811134C020E030E0A901C5014A
:1056E000B4010E94B89987FD03C08BE20E94361C6A
:1056F00045E0C501B4011DD87A94045F1F4F7110B5
:10570000DBCF8AE00E94361C8FEFC81AD80AE80A5D
:10571000F80A249693E0C916D104E104F10411F6C5
:105720008AE0DF91CF911F910F91FF90EF90DF9072
:10573000CF90BF90AF909F908F907F900C94361C2D
:10574000B12C80E20E94361CB3948DE3F8E0BF12C6
:10575000F9CFD2CF8F929F92AF92BF92CF92DF922A
:10576000EF92FF920F931F93CF93DF93C82F811176
:105770000BC003EB1EE1F80184910F5F1F4F8823DC
:1057800019F00E94361CF7CF05E219E0F801849168
:105790000F5F1F4F81110BC00CED16E0F8018491D3
:1057A0000F5F1F4F882331F00E94361CF7CF0E94F5
:1057B000361CECCF8AE00E94361C8AE00E94361C20
:1057C000C1112CC003EB1EE17801F7018491FFEFBA
:1057D000EF1AFF0A81110EC022E1E22E29E0F22E1B
:1057E000F7018491FFEFEF1AFF0A882331F00E943E
:1057F000361CF6CF0E94361CE8CF8091200C97E033
:10580000E92E99E0F92E882349F18AE00E94361C9E
:10581000F80184910F5F1F4F8111F8CF40911C0C4C
:1058200050911D0C60911E0C70911F0C8EEF98E032
:105830000E940B248AE00E94361C8091200C81116A
:1058400022C0C11115C003EB1EE1F80184910F5F66
:105850001F4F882369F00E94361CF7CFF70184910F
:10586000FFEFEF1AFF0A882399F20E94361CF6CF49
:1058700003EF18E0F80184910F5F1F4F882319F0A0
:105880000E94361CF7CFC11124C003EB1EE1780142
:10589000F7018491FFEFEF1AFF0A81110EC082EE2B
:1058A000E82E88E0F82EF7018491FFEFEF1AFF0A47
:1058B000882331F00E94361CF6CF0E94361CE8CFB8
:1058C000F80184910F5F1F4F882319F00E94361C46
:1058D000F7CF40919A0C50919B0C60919C0C709169
:1058E0009D0C8AED98E00E940B2440919E0C5091F3
:1058F0009F0C6091A00C7091A10C87ED98E00E9424
:105900000B244091A20C5091A30C6091A40C7091B7
:10591000A50C84ED98E00E940B244091A60C5091B8
:10592000A70C6091A80C7091A90C81ED98E00E94E1
:105930000B248AE00E94361CC11124C003EB1EE137
:105940007801F7018491FFEFEF1AFF0A81110EC071
:10595000D3EBED2ED8E0FD2EF7018491FFEFEF1A87
:10596000FF0A882331F00E94361CF6CF0E94361CB5
:10597000E8CFF80184910F5F1F4F882319F00E9430
:10598000361CF7CF4091310C5091320C6091330CA2
:105990007091340C8AEA98E00E940B244091350CF7
:1059A0005091360C6091370C7091380C87EA98E072
:1059B0000E940B244091390C50913A0C60913B0CA1
:1059C00070913C0C84EA98E00E940B2440913D0CBD
:1059D00050913E0C60913F0C7091400C81EA98E030
:1059E0000E940B248AE00E94361CC11124C003EBE4
:1059F0001EE17801F7018491FFEFEF1AFF0A811190
:105A00000EC0BFE7EB2EB8E0FB2EF7018491FFEF4D
:105A1000EF1AFF0A882331F00E94361CF6CF0E944D
:105A2000361CE8CFF80184910F5F1F4F882319F0CF
:105A30000E94361CF7CF4091210C5091220C6091AE
:105A4000230C7091240C86E798E00E943C1E409144
:105A5000250C5091260C6091270C7091280C83E73F
:105A600098E00E943C1E4091290C50912A0C6091B4
:105A70002B0C70912C0C80E798E00E943C1E40910A
:105A80002D0C50912E0C60912F0C7091300C8DE6E6
:105A900098E00E943C1E8AE00E94361CC11124C07E
:105AA00003EB1EE17801F7018491FFEFEF1AFF0A83
:105AB00081110EC0A3E2EA2EA8E0FA2EF70184912C
:105AC000FFEFEF1AFF0A882331F00E94361CF6CF51
:105AD0000E94361CE8CFF80184910F5F1F4F882386
